{
  "_format": "hh-sol-artifact-1",
  "contractName": "Voting",
  "sourceName": "contracts/Voting.sol",
  "abi": [
    {
      "inputs": [
        {
          "internalType": "string[]",
          "name": "_names",
          "type": "string[]"
        },
        {
          "internalType": "string[]",
          "name": "_photos",
          "type": "string[]"
        },
        {
          "internalType": "uint256[]",
          "name": "_ages",
          "type": "uint256[]"
        },
        {
          "internalType": "string[]",
          "name": "_countries",
          "type": "string[]"
        },
        {
          "internalType": "string[]",
          "name": "_genders",
          "type": "string[]"
        },
        {
          "internalType": "uint256",
          "name": "_durationInMinutes",
          "type": "uint256"
        }
      ],
      "stateMutability": "nonpayable",
      "type": "constructor"
    },
    {
      "anonymous": false,
      "inputs": [
        {
          "indexed": false,
          "internalType": "string",
          "name": "name",
          "type": "string"
        },
        {
          "indexed": false,
          "internalType": "uint256",
          "name": "age",
          "type": "uint256"
        }
      ],
      "name": "CandidateAdded",
      "type": "event"
    },
    {
      "anonymous": false,
      "inputs": [
        {
          "indexed": false,
          "internalType": "address",
          "name": "voter",
          "type": "address"
        },
        {
          "indexed": false,
          "internalType": "uint256",
          "name": "candidateIndex",
          "type": "uint256"
        }
      ],
      "name": "Voted",
      "type": "event"
    },
    {
      "anonymous": false,
      "inputs": [
        {
          "indexed": false,
          "internalType": "uint256",
          "name": "timestamp",
          "type": "uint256"
        }
      ],
      "name": "VotingEnded",
      "type": "event"
    },
    {
      "inputs": [
        {
          "internalType": "string",
          "name": "_name",
          "type": "string"
        },
        {
          "internalType": "string",
          "name": "_photo",
          "type": "string"
        },
        {
          "internalType": "uint256",
          "name": "_age",
          "type": "uint256"
        },
        {
          "internalType": "string",
          "name": "_country",
          "type": "string"
        },
        {
          "internalType": "string",
          "name": "_gender",
          "type": "string"
        }
      ],
      "name": "addCandidate",
      "outputs": [],
      "stateMutability": "nonpayable",
      "type": "function"
    },
    {
      "inputs": [
        {
          "internalType": "uint256",
          "name": "",
          "type": "uint256"
        }
      ],
      "name": "candidates",
      "outputs": [
        {
          "internalType": "string",
          "name": "name",
          "type": "string"
        },
        {
          "internalType": "uint256",
          "name": "voteCount",
          "type": "uint256"
        },
        {
          "internalType": "string",
          "name": "photo",
          "type": "string"
        },
        {
          "internalType": "uint256",
          "name": "age",
          "type": "uint256"
        },
        {
          "internalType": "string",
          "name": "country",
          "type": "string"
        },
        {
          "internalType": "string",
          "name": "gender",
          "type": "string"
        }
      ],
      "stateMutability": "view",
      "type": "function"
    },
    {
      "inputs": [],
      "name": "endVoting",
      "outputs": [],
      "stateMutability": "nonpayable",
      "type": "function"
    },
    {
      "inputs": [],
      "name": "getAllCandidates",
      "outputs": [
        {
          "components": [
            {
              "internalType": "string",
              "name": "name",
              "type": "string"
            },
            {
              "internalType": "uint256",
              "name": "voteCount",
              "type": "uint256"
            },
            {
              "internalType": "string",
              "name": "photo",
              "type": "string"
            },
            {
              "internalType": "uint256",
              "name": "age",
              "type": "uint256"
            },
            {
              "internalType": "string",
              "name": "country",
              "type": "string"
            },
            {
              "internalType": "string",
              "name": "gender",
              "type": "string"
            }
          ],
          "internalType": "struct Voting.Candidate[]",
          "name": "",
          "type": "tuple[]"
        }
      ],
      "stateMutability": "view",
      "type": "function"
    },
    {
      "inputs": [],
      "name": "getRemainingTime",
      "outputs": [
        {
          "internalType": "uint256",
          "name": "",
          "type": "uint256"
        }
      ],
      "stateMutability": "view",
      "type": "function"
    },
    {
      "inputs": [],
      "name": "getVotingStatus",
      "outputs": [
        {
          "internalType": "bool",
          "name": "",
          "type": "bool"
        }
      ],
      "stateMutability": "view",
      "type": "function"
    },
    {
      "inputs": [],
      "name": "owner",
      "outputs": [
        {
          "internalType": "address",
          "name": "",
          "type": "address"
        }
      ],
      "stateMutability": "view",
      "type": "function"
    },
    {
      "inputs": [
        {
          "internalType": "uint256",
          "name": "_candidateIndex",
          "type": "uint256"
        }
      ],
      "name": "vote",
      "outputs": [],
      "stateMutability": "nonpayable",
      "type": "function"
    },
    {
      "inputs": [
        {
          "internalType": "address",
          "name": "",
          "type": "address"
        }
      ],
      "name": "voters",
      "outputs": [
        {
          "internalType": "bool",
          "name": "",
          "type": "bool"
        }
      ],
      "stateMutability": "view",
      "type": "function"
    },
    {
      "inputs": [],
      "name": "votingEnd",
      "outputs": [
        {
          "internalType": "uint256",
          "name": "",
          "type": "uint256"
        }
      ],
      "stateMutability": "view",
      "type": "function"
    },
    {
      "inputs": [],
      "name": "votingStart",
      "outputs": [
        {
          "internalType": "uint256",
          "name": "",
          "type": "uint256"
        }
      ],
      "stateMutability": "view",
      "type": "function"
    }
  ],
  "bytecode": "0x60c06040523480156200001157600080fd5b506040516200264d3803806200264d833981810160405281019062000037919062000849565b845186511480156200004a575083518651145b801562000058575082518651145b801562000066575081518651145b620000a8576040517f08c379a00000000000000000000000000000000000000000000000000000000081526004016200009f90620009e1565b60405180910390fd5b3373ffffffffffffffffffffffffffffffffffffffff1660808173ffffffffffffffffffffffffffffffffffffffff16815250504260a08181525050603c81620000f3919062000a32565b4262000100919062000a93565b60018190555060005b8651811015620003e25760008782815181106200012b576200012a62000af0565b5b6020026020010151511162000177576040517f08c379a00000000000000000000000000000000000000000000000000000000081526004016200016e9062000b6f565b60405180910390fd5b60128582815181106200018f576200018e62000af0565b5b60200260200101511015620001db576040517f08c379a0000000000000000000000000000000000000000000000000000000008152600401620001d29062000c07565b60405180910390fd5b60006040518060c00160405280898481518110620001fe57620001fd62000af0565b5b602002602001015181526020016000815260200188848151811062000228576200022762000af0565b5b602002602001015181526020018784815181106200024b576200024a62000af0565b5b602002602001015181526020018684815181106200026e576200026d62000af0565b5b6020026020010151815260200185848151811062000291576200029062000af0565b5b602002602001015181525090806001815401808255809150506001900390600052602060002090600602016000909190919091506000820151816000019080519060200190620002e3929190620003ef565b506020820151816001015560408201518160020190805190602001906200030c929190620003ef565b5060608201518160030155608082015181600401908051906020019062000335929190620003ef565b5060a082015181600501908051906020019062000354929190620003ef565b5050507fa89e28469fa9e15d5149634a9ce8d8dd59ec42c18ba2d281b08c305f2095acef8782815181106200038e576200038d62000af0565b5b6020026020010151868381518110620003ac57620003ab62000af0565b5b6020026020010151604051620003c492919062000c86565b60405180910390a18080620003d99062000cba565b91505062000109565b5050505050505062000d6d565b828054620003fd9062000d37565b90600052602060002090601f0160209004810192826200042157600085556200046d565b82601f106200043c57805160ff19168380011785556200046d565b828001600101855582156200046d579182015b828111156200046c5782518255916020019190600101906200044f565b5b5090506200047c919062000480565b5090565b5b808211156200049b57600081600090555060010162000481565b5090565b6000604051905090565b600080fd5b600080fd5b600080fd5b6000601f19601f8301169050919050565b7f4e487b7100000000000000000000000000000000000000000000000000000000600052604160045260246000fd5b6200050382620004b8565b810181811067ffffffffffffffff82111715620005255762000524620004c9565b5b80604052505050565b60006200053a6200049f565b9050620005488282620004f8565b919050565b600067ffffffffffffffff8211156200056b576200056a620004c9565b5b602082029050602081019050919050565b600080fd5b600080fd5b600067ffffffffffffffff821115620005a457620005a3620004c9565b5b620005af82620004b8565b9050602081019050919050565b60005b83811015620005dc578082015181840152602081019050620005bf565b83811115620005ec576000848401525b50505050565b600062000609620006038462000586565b6200052e565b90508281526020810184848401111562000628576200062762000581565b5b62000635848285620005bc565b509392505050565b600082601f830112620006555762000654620004b3565b5b815162000667848260208601620005f2565b91505092915050565b60006200068762000681846200054d565b6200052e565b90508083825260208201905060208402830185811115620006ad57620006ac6200057c565b5b835b81811015620006fb57805167ffffffffffffffff811115620006d657620006d5620004b3565b5b808601620006e589826200063d565b85526020850194505050602081019050620006af565b5050509392505050565b600082601f8301126200071d576200071c620004b3565b5b81516200072f84826020860162000670565b91505092915050565b600067ffffffffffffffff821115620007565762000755620004c9565b5b602082029050602081019050919050565b6000819050919050565b6200077c8162000767565b81146200078857600080fd5b50565b6000815190506200079c8162000771565b92915050565b6000620007b9620007b38462000738565b6200052e565b90508083825260208201905060208402830185811115620007df57620007de6200057c565b5b835b818110156200080c5780620007f788826200078b565b845260208401935050602081019050620007e1565b5050509392505050565b600082601f8301126200082e576200082d620004b3565b5b815162000840848260208601620007a2565b91505092915050565b60008060008060008060c08789031215620008695762000868620004a9565b5b600087015167ffffffffffffffff8111156200088a5762000889620004ae565b5b6200089889828a0162000705565b965050602087015167ffffffffffffffff811115620008bc57620008bb620004ae565b5b620008ca89828a0162000705565b955050604087015167ffffffffffffffff811115620008ee57620008ed620004ae565b5b620008fc89828a0162000816565b945050606087015167ffffffffffffffff81111562000920576200091f620004ae565b5b6200092e89828a0162000705565b935050608087015167ffffffffffffffff811115620009525762000951620004ae565b5b6200096089828a0162000705565b92505060a06200097389828a016200078b565b9150509295509295509295565b600082825260208201905092915050565b7f496e70757420617272617973206c656e677468206d69736d6174636800000000600082015250565b6000620009c9601c8362000980565b9150620009d68262000991565b602082019050919050565b60006020820190508181036000830152620009fc81620009ba565b9050919050565b7f4e487b7100000000000000000000000000000000000000000000000000000000600052601160045260246000fd5b600062000a3f8262000767565b915062000a4c8362000767565b9250817fffffffffffffffffffffffffffffffffffffffffffffffffffffffffffffffff048311821515161562000a885762000a8762000a03565b5b828202905092915050565b600062000aa08262000767565b915062000aad8362000767565b9250827fffffffffffffffffffffffffffffffffffffffffffffffffffffffffffffffff0382111562000ae55762000ae462000a03565b5b828201905092915050565b7f4e487b7100000000000000000000000000000000000000000000000000000000600052603260045260246000fd5b7f4e616d652063616e6e6f7420626520656d707479000000000000000000000000600082015250565b600062000b5760148362000980565b915062000b648262000b1f565b602082019050919050565b6000602082019050818103600083015262000b8a8162000b48565b9050919050565b7f43616e646964617465206d757374206265206174206c6561737420313820796560008201527f617273206f6c6400000000000000000000000000000000000000000000000000602082015250565b600062000bef60278362000980565b915062000bfc8262000b91565b604082019050919050565b6000602082019050818103600083015262000c228162000be0565b9050919050565b600081519050919050565b600062000c418262000c29565b62000c4d818562000980565b935062000c5f818560208601620005bc565b62000c6a81620004b8565b840191505092915050565b62000c808162000767565b82525050565b6000604082019050818103600083015262000ca2818562000c34565b905062000cb3602083018462000c75565b9392505050565b600062000cc78262000767565b91507fffffffffffffffffffffffffffffffffffffffffffffffffffffffffffffffff82141562000cfd5762000cfc62000a03565b5b600182019050919050565b7f4e487b7100000000000000000000000000000000000000000000000000000000600052602260045260246000fd5b6000600282049050600182168062000d5057607f821691505b6020821081141562000d675762000d6662000d08565b5b50919050565b60805160a0516118a562000da8600039600081816103ae01526108fb01526000818161093101528181610b700152610bb401526118a56000f3fe608060405234801561001057600080fd5b50600436106100a95760003560e01c80636881cd21116100715780636881cd211461015957806385a38635146101755780638da5cb5b14610193578063a3ec138d146101b1578063c3403ddf146101e1578063efb98bcf146101eb576100a9565b80630121b93f146100ae578063101158af146100ca5780632e6997fe146100e85780633477ee2e14610106578063581c281c1461013b575b600080fd5b6100c860048036038101906100c39190610dd9565b610209565b005b6100d26103ac565b6040516100df9190610e15565b60405180910390f35b6100f06103d0565b6040516100fd9190611038565b60405180910390f35b610120600480360381019061011b9190610dd9565b61068b565b604051610132969594939291906110a4565b60405180910390f35b6101436108f7565b604051610150919061113c565b60405180910390f35b610173600480360381019061016e919061128c565b61092f565b005b61017d610b68565b60405161018a9190610e15565b60405180910390f35b61019b610b6e565b6040516101a891906113b8565b60405180910390f35b6101cb60048036038101906101c691906113ff565b610b92565b6040516101d8919061113c565b60405180910390f35b6101e9610bb2565b005b6101f3610cc4565b6040516102009190610e15565b60405180910390f35b600260003373ffffffffffffffffffffffffffffffffffffffff1673ffffffffffffffffffffffffffffffffffffffff16815260200190815260200160002060009054906101000a900460ff1615610296576040517f08c379a000000000000000000000000000000000000000000000000000000000815260040161028d90611478565b60405180910390fd5b60008054905081106102dd576040517f08c379a00000000000000000000000000000000000000000000000000000000081526004016102d4906114e4565b60405180910390fd5b600081815481106102f1576102f0611504565b5b9060005260206000209060060201600101600081548092919061031390611562565b91905055506001600260003373ffffffffffffffffffffffffffffffffffffffff1673ffffffffffffffffffffffffffffffffffffffff16815260200190815260200160002060006101000a81548160ff0219169083151502179055507f4d99b957a2bc29a30ebd96a7be8e68fe50a3c701db28a91436490b7d53870ca433826040516103a19291906115ab565b60405180910390a150565b7f000000000000000000000000000000000000000000000000000000000000000081565b60606000805480602002602001604051908101604052809291908181526020016000905b8282101561068257838290600052602060002090600602016040518060c001604052908160008201805461042790611603565b80601f016020809104026020016040519081016040528092919081815260200182805461045390611603565b80156104a05780601f10610475576101008083540402835291602001916104a0565b820191906000526020600020905b81548152906001019060200180831161048357829003601f168201915b50505050508152602001600182015481526020016002820180546104c390611603565b80601f01602080910402602001604051908101604052809291908181526020018280546104ef90611603565b801561053c5780601f106105115761010080835404028352916020019161053c565b820191906000526020600020905b81548152906001019060200180831161051f57829003601f168201915b505050505081526020016003820154815260200160048201805461055f90611603565b80601f016020809104026020016040519081016040528092919081815260200182805461058b90611603565b80156105d85780601f106105ad576101008083540402835291602001916105d8565b820191906000526020600020905b8154815290600101906020018083116105bb57829003601f168201915b505050505081526020016005820180546105f190611603565b80601f016020809104026020016040519081016040528092919081815260200182805461061d90611603565b801561066a5780601f1061063f5761010080835404028352916020019161066a565b820191906000526020600020905b81548152906001019060200180831161064d57829003601f168201915b505050505081525050815260200190600101906103f4565b50505050905090565b6000818154811061069b57600080fd5b90600052602060002090600602016000915090508060000180546106be90611603565b80601f01602080910402602001604051908101604052809291908181526020018280546106ea90611603565b80156107375780601f1061070c57610100808354040283529160200191610737565b820191906000526020600020905b81548152906001019060200180831161071a57829003601f168201915b50505050509080600101549080600201805461075290611603565b80601f016020809104026020016040519081016040528092919081815260200182805461077e90611603565b80156107cb5780601f106107a0576101008083540402835291602001916107cb565b820191906000526020600020905b8154815290600101906020018083116107ae57829003601f168201915b5050505050908060030154908060040180546107e690611603565b80601f016020809104026020016040519081016040528092919081815260200182805461081290611603565b801561085f5780601f106108345761010080835404028352916020019161085f565b820191906000526020600020905b81548152906001019060200180831161084257829003601f168201915b50505050509080600501805461087490611603565b80601f01602080910402602001604051908101604052809291908181526020018280546108a090611603565b80156108ed5780601f106108c2576101008083540402835291602001916108ed565b820191906000526020600020905b8154815290600101906020018083116108d057829003601f168201915b5050505050905086565b60007f0000000000000000000000000000000000000000000000000000000000000000421015801561092a575060015442105b905090565b7f000000000000000000000000000000000000000000000000000000000000000073ffffffffffffffffffffffffffffffffffffffff163373ffffffffffffffffffffffffffffffffffffffff16146109bd576040517f08c379a00000000000000000000000000000000000000000000000000000000081526004016109b490611681565b60405180910390fd5b6000855111610a01576040517f08c379a00000000000000000000000000000000000000000000000000000000081526004016109f8906116ed565b60405180910390fd5b6012831015610a45576040517f08c379a0000000000000000000000000000000000000000000000000000000008152600401610a3c9061177f565b60405180910390fd5b60006040518060c00160405280878152602001600081526020018681526020018581526020018481526020018381525090806001815401808255809150506001900390600052602060002090600602016000909190919091506000820151816000019080519060200190610aba929190610cec565b50602082015181600101556040820151816002019080519060200190610ae1929190610cec565b50606082015181600301556080820151816004019080519060200190610b08929190610cec565b5060a0820151816005019080519060200190610b25929190610cec565b5050507fa89e28469fa9e15d5149634a9ce8d8dd59ec42c18ba2d281b08c305f2095acef8584604051610b5992919061179f565b60405180910390a15050505050565b60015481565b7f000000000000000000000000000000000000000000000000000000000000000081565b60026020528060005260406000206000915054906101000a900460ff1681565b7f000000000000000000000000000000000000000000000000000000000000000073ffffffffffffffffffffffffffffffffffffffff163373ffffffffffffffffffffffffffffffffffffffff1614610c40576040517f08c379a0000000000000000000000000000000000000000000000000000000008152600401610c3790611681565b60405180910390fd5b6001544210610c84576040517f08c379a0000000000000000000000000000000000000000000000000000000008152600401610c7b9061181b565b60405180910390fd5b426001819055507f81eb7415440ff8e6c8e92606fd3b0e5e6a5c99ea90cdb63b41aec54e897312b342604051610cba9190610e15565b60405180910390a1565b60006001544210610cd85760009050610ce9565b42600154610ce6919061183b565b90505b90565b828054610cf890611603565b90600052602060002090601f016020900481019282610d1a5760008555610d61565b82601f10610d3357805160ff1916838001178555610d61565b82800160010185558215610d61579182015b82811115610d60578251825591602001919060010190610d45565b5b509050610d6e9190610d72565b5090565b5b80821115610d8b576000816000905550600101610d73565b5090565b6000604051905090565b600080fd5b600080fd5b6000819050919050565b610db681610da3565b8114610dc157600080fd5b50565b600081359050610dd381610dad565b92915050565b600060208284031215610def57610dee610d99565b5b6000610dfd84828501610dc4565b91505092915050565b610e0f81610da3565b82525050565b6000602082019050610e2a6000830184610e06565b92915050565b600081519050919050565b600082825260208201905092915050565b6000819050602082019050919050565b600081519050919050565b600082825260208201905092915050565b60005b83811015610e96578082015181840152602081019050610e7b565b83811115610ea5576000848401525b50505050565b6000601f19601f8301169050919050565b6000610ec782610e5c565b610ed18185610e67565b9350610ee1818560208601610e78565b610eea81610eab565b840191505092915050565b610efe81610da3565b82525050565b600060c0830160008301518482036000860152610f218282610ebc565b9150506020830151610f366020860182610ef5565b5060408301518482036040860152610f4e8282610ebc565b9150506060830151610f636060860182610ef5565b5060808301518482036080860152610f7b8282610ebc565b91505060a083015184820360a0860152610f958282610ebc565b9150508091505092915050565b6000610fae8383610f04565b905092915050565b6000602082019050919050565b6000610fce82610e30565b610fd88185610e3b565b935083602082028501610fea85610e4c565b8060005b8581101561102657848403895281516110078582610fa2565b945061101283610fb6565b925060208a01995050600181019050610fee565b50829750879550505050505092915050565b600060208201905081810360008301526110528184610fc3565b905092915050565b600082825260208201905092915050565b600061107682610e5c565b611080818561105a565b9350611090818560208601610e78565b61109981610eab565b840191505092915050565b600060c08201905081810360008301526110be818961106b565b90506110cd6020830188610e06565b81810360408301526110df818761106b565b90506110ee6060830186610e06565b8181036080830152611100818561106b565b905081810360a0830152611114818461106b565b9050979650505050505050565b60008115159050919050565b61113681611121565b82525050565b6000602082019050611151600083018461112d565b92915050565b600080fd5b600080fd5b7f4e487b7100000000000000000000000000000000000000000000000000000000600052604160045260246000fd5b61119982610eab565b810181811067ffffffffffffffff821117156111b8576111b7611161565b5b80604052505050565b60006111cb610d8f565b90506111d78282611190565b919050565b600067ffffffffffffffff8211156111f7576111f6611161565b5b61120082610eab565b9050602081019050919050565b82818337600083830152505050565b600061122f61122a846111dc565b6111c1565b90508281526020810184848401111561124b5761124a61115c565b5b61125684828561120d565b509392505050565b600082601f83011261127357611272611157565b5b813561128384826020860161121c565b91505092915050565b600080600080600060a086880312156112a8576112a7610d99565b5b600086013567ffffffffffffffff8111156112c6576112c5610d9e565b5b6112d28882890161125e565b955050602086013567ffffffffffffffff8111156112f3576112f2610d9e565b5b6112ff8882890161125e565b945050604061131088828901610dc4565b935050606086013567ffffffffffffffff81111561133157611330610d9e565b5b61133d8882890161125e565b925050608086013567ffffffffffffffff81111561135e5761135d610d9e565b5b61136a8882890161125e565b9150509295509295909350565b600073ffffffffffffffffffffffffffffffffffffffff82169050919050565b60006113a282611377565b9050919050565b6113b281611397565b82525050565b60006020820190506113cd60008301846113a9565b92915050565b6113dc81611397565b81146113e757600080fd5b50565b6000813590506113f9816113d3565b92915050565b60006020828403121561141557611414610d99565b5b6000611423848285016113ea565b91505092915050565b7f596f75206861766520616c726561647920766f74656400000000000000000000600082015250565b600061146260168361105a565b915061146d8261142c565b602082019050919050565b6000602082019050818103600083015261149181611455565b9050919050565b7f496e76616c69642063616e64696461746520696e646578000000000000000000600082015250565b60006114ce60178361105a565b91506114d982611498565b602082019050919050565b600060208201905081810360008301526114fd816114c1565b9050919050565b7f4e487b7100000000000000000000000000000000000000000000000000000000600052603260045260246000fd5b7f4e487b7100000000000000000000000000000000000000000000000000000000600052601160045260246000fd5b600061156d82610da3565b91507fffffffffffffffffffffffffffffffffffffffffffffffffffffffffffffffff8214156115a05761159f611533565b5b600182019050919050565b60006040820190506115c060008301856113a9565b6115cd6020830184610e06565b9392505050565b7f4e487b7100000000000000000000000000000000000000000000000000000000600052602260045260246000fd5b6000600282049050600182168061161b57607f821691505b6020821081141561162f5761162e6115d4565b5b50919050565b7f4e6f7420617574686f72697a6564000000000000000000000000000000000000600082015250565b600061166b600e8361105a565b915061167682611635565b602082019050919050565b6000602082019050818103600083015261169a8161165e565b9050919050565b7f4e616d652063616e6e6f7420626520656d707479000000000000000000000000600082015250565b60006116d760148361105a565b91506116e2826116a1565b602082019050919050565b60006020820190508181036000830152611706816116ca565b9050919050565b7f43616e646964617465206d757374206265206174206c6561737420313820796560008201527f617273206f6c6400000000000000000000000000000000000000000000000000602082015250565b600061176960278361105a565b91506117748261170d565b604082019050919050565b600060208201905081810360008301526117988161175c565b9050919050565b600060408201905081810360008301526117b9818561106b565b90506117c86020830184610e06565b9392505050565b7f566f74696e6720616c726561647920656e646564000000000000000000000000600082015250565b600061180560148361105a565b9150611810826117cf565b602082019050919050565b60006020820190508181036000830152611834816117f8565b9050919050565b600061184682610da3565b915061185183610da3565b92508282101561186457611863611533565b5b82820390509291505056fea2646970667358221220c4c24d0d01ceeae6786f673e6efd31f61150c2f4b939794b22a5f6007177f3a664736f6c634300080b0033",
  "linkReferences": {},
  "deployedLinkReferences": {}
}